:030000000204BA3D
:0C04BA00787FE4F6D8FD75812002050172
:040E0A007F647E0083
:100E0E00EF1F70011E144E600B007D027CC7DCFECE
:040E1E00DDFC80EC8B
:010E220022AD
:1008ED00E490005EF0A3F0FBFA7580FF7580AA120C
:1008FD000E0A758055120E0AC2A4120E0AD2A41247
:10090D000E0A90005FE004F0700690005EE004F0C7
:10091D0090005EE07004A3E0640370D0E4F5807F86
:10092D0064FE120E0E7580FF120E0A0BBB00010A3B
:08093D00EB64034A70E680FE42
:060D9F00C2877F647E00A4
:100DA500EF1FAA0670011E4A600BE4FDEDC39472A5
:050DB50050EE0D80F777
:010DBA002216
:10041100E4900043F0A3F0A3F0A3F0C280C282C233
:1004210084C286120DA1D280D282D284D286120DCC
:10043100A1C281C283C285120D9FD281D283D2858E
:10044100D287120DA1C2A4120DA1D2A4120DA190A6
:100451000044E004F07006900043E004F090004393
:10046100E07004A3E0640370B2D280D281D282D260
:1004710083D284D285D286D287120DA1C280C28155
:10048100C282C283C284C285C286120D9F90004679
:10049100E004F07006900045E004F0900045E07043
:1004A10004A3E0640370C2D280D281D282D283D20B
:0904B10084D285D286D28780FE38
:0B088F00430039AA55FF42003C00FF67
:0A0CC6003EF583E0F5807F647E00B8
:100CD000EF1FAA0670011E4A600BE4FDEDC394727B
:050CE00050EE0D80F74D
:010CE50022EC
:1001EC00E4900047F0A3F0A3F0A3F0E4900047F0F4
:1001FC00A3F0E4900049F0A3F0900049E0FEA3E0E6
:10020C00FFC39403EE64809480501A74392FF582E6
:10021C007400120CC690004AE004F070DC900049A7
:10022C00E004F080D4C2A4120CCCD2A4120CCC905A
:10023C000048E004F07006900047E004F0C3900022
:10024C0048E09403900047E06480948040A4E490DC
:10025C000047F0A3F0E4900049F0A3F0900049E0CF
:10026C00FEA3E0FFC39402EE64809480501A743CA9
:10027C002FF5827400120CC690004AE004F070DC7A
:10028C00900049E004F080D4900048E004F070063F
:10029C00900047E004F0C3900048E09403900047BE
:0902AC00E06480948040AE80FE05
:10089A0050001D68656C6C6F20776F726C64203134
:0D08AA0032330042002D000042002F0000FC
:100AAD00900060EEF0A3EFF00090002DE4F0A37441
:100ABD0002F0A3E4F0A374C7F090002F74FFF5F0DB
:100ACD001203E545F070F290002D74FFF5F012035E
:060ADD00E545F070E42283
:060E6100C2A6D2A78F908B
:050E6700000000002264
:100E2300D200300010C2A5D2A6D2A7E5903392001B
:070E3300120E6780EDC2A75B
:010E3A002295
:0B0E6C00120E23C2A5120E61C2A722C5
:0B0E7700120E23D2A5120E61C2A722AA
:100BB5007F0F7E00120AADC2A6C2A7D2A57F301252
:100BC5000E6C7F05120AAD7F0C120E6C7F05120AA2
:100BD500AD0F120E6C1F120AAD7F01120E6C7F0550
:030BE500020AAD54
:0B09CB0090004FEBF0A3EAF0A3E9F06E
:1009D600E4FD90004FE0FBA3E0FAA3E0F98D8275F9
:1009E60083001203636018AF050D8F8275830012B2
:0F09F6000363FF120E777F057E00120AAD80D3D8
:010A050022CE
:100CE6007580FF75A0FF120BB57F647E00120AADFA
:100CF6007F80120E6C7B017A00791D1209CB80F081
:10003E007580FF75A0FF7580FEE4FDFCE4FF0FEFF9
:10004E00B40AFBB2A40DBD00010CBC01EFBD90ECD7
:10005E007580FDE4FCFDE4FF0FEFB414FBB2A40DBC
:10006E00BD00010CBC01EFBD2CEC7580FBE4FCFD6A
:10007E00E4FF0FEFB41EFBB2A40DBD00010CBC01DA
:10008E00EFBD90EC7580F7E4FCFDE4FF0FEFB428B4
:10009E00FBB2A40DBD00010CBC01EFBD2CEC7580B4
:1000AE00EFE4FCFDE4FF0FEFB432FBB2A40DBD0094
:1000BE00010CBC01EFBD90EC7580DFE4FCFDE4FFAC
:1000CE000FEFB43CFBB2A40DBD00010CBC01EFBDA3
:1000DE002CEC7580BFE4FCFDE4FF0FEFB446FBB2E1
:1000EE00A40DBD00010CBC01EFBD90EC75807FE44A
:1000FE00FCFDE4FF0FEFB450FBB2A40DBD00010CEC
:10010E00BC01EFBD2CEC75807FE4FCFDE4FF0FEF2E
:10011E00B450FBB2A40DBD00010CBC01EFBD90ECC0
:10012E007580BFE4FCFDE4FF0FEFB446FBB2A40DF7
:10013E00BD00010CBC01EFBD2CEC7580DFE4FCFDB5
:10014E00E4FF0FEFB43CFBB2A40DBD00010CBC01EB
:10015E00EFBD90EC7580EFE4FCFDE4FF0FEFB432E1
:10016E00FBB2A40DBD00010CBC01EFBD2CEC7580E3
:10017E00F7E4FCFDE4FF0FEFB428FBB2A40DBD00C5
:10018E00010CBC01EFBD90EC7580FBE4FCFDE4FFBF
:10019E000FEFB41EFBB2A40DBD00010CBC01EFBDF0
:1001AE002CEC7580FDE4FCFDE4FF0FEFB414FBB204
:1001BE00A40DBD00010CBC01EFBD90EC7580FEE4FA
:1001CE00FCFDC3ED942CEC94014003020044E4FFCB
:0E01DE000FEFB40AFBB2A40DBD00010C80E4CB
:0A0EAE00C0F9A4B0999282F8809078
:0F0C3E00D2A47F647E00120C4DC2A47F647E009E
:100C4D00EF1FAA0670011E4A600BE4FDEDC39472FE
:050C5D0050EE0D80F7D0
:010C6200226F
:0402B500AB07AA06E3
:1002B9007C037DE8120390900052EFF07C007D648E
:1002C900AF03AE021203907C007D0A120390A3EDE6
:1002D900F07C007D0AAF03AE021203907C007D0A18
:1002E900120390A3EDF0AE02AF037C007D0A120366
:1002F90090AC05C2A0900052E0900EAE93F5807FBD
:10030900E87E03120C4DD2A0120C3EC2A1900053FC
:10031900E0900EAE93F5807FE87E03120C4DD2A1DA
:10032900120C3EC2A2900054E0900EAE93F5807F6D
:10033900E87E03120C4DD2A2120C3EC2A3AF04EF09
:1003490093F5807FE87E03120C4DD2A3D2A4120C40
:0A03590049C2A47F647E00020C4D2F
:090ECC007FE17E101202B580F7EF
:0D002E0020B207C2A420B20480FBD2A4229D
:0500060012002E80FB3A
:040DD6007F0A7E0012
:100DDA00EF1FAA0670011E4A600BE4FDEDC3947270
:050DEA0050EE0D80F742
:010DEF0022E1
:100D260020B21B120DD620B213120DD620B202C26B
:0F0D3600A430B2FD120DD620B20480FBD2A4224D
:05001E00120D2680FB1D
:040ED5000505050505
:090D4500A3E493F5807F057E0014
:100D4E00EF1FAA0670011E4A600BE4FDEDC39472FC
:050D5E0050EE0D80F7CE
:010D6300226D
:100D0600C2A0900ED5120D46D2A0C2A1120D45D298
:100D1600A1C2A2120D45D2A2C2A3120D45D2A32290
:05002600120D0680FB35
:0E0E5300C0F9A4B0999282F880908986C7C039
:0B0C6300E0900E5393F5807F057E00AB
:100C6E00EF1FAA0670011E4A600BE4FDEDC39472DD
:050C7E0050EE0D80F7AF
:010C8300224E
:100C1700C2A0900E5DE4120C67D2A0C2A1A3E41299
:100C27000C67D2A1C2A2A3E4120C67D2A2C2A3A3EB
:070C3700E4120C67D2A322B6
:04081F00AB07AA0673
:100823007C037DE8120390900055EFF07C007D641B
:10083300AF03AE021203907C007D0A120390A3ED76
:10084300F07C007D0AAF03AE021203907C007D0AA8
:10085300120390A3EDF0AE02AF037C007D0A1203F6
:1008630090AC05C2A0900055120C63D2A0C2A19017
:100873000056120C63D2A1C2A2900057120C63D28D
:0B088300A2C2A3AF04EF120C67D2A3C7
:01088E002247
:1005460090004B7423F0A37428F0E4A3F0A3F0907A
:10055600004BE0FEA3E0FF12081F7F0A7E00120C8C
:100566006E90004CE024FFF090004BE034FFF0E08A
:10057600B422DCA3E0B4B8D77FB87E2212081F7F6E
:10058600647E00120C6EE4F5807F64FE120C6E75BC
:1005960080FF7F647E00120C6EC2A47F647E001210
:1005A6000C6ED2A47F647E00120C6E90004EE004A6
:1005B600F0700690004DE004F090004DE07004A34A
:0A05C600E0640370B3120C1780FB11
:0A0EB800C0F9A4B0999282F880906E
:0B0C8400E0900EB893F5807F057E0025
:100C8F00EF1FAA0670011E4A600BE4FDEDC39472BC
:050C9F0050EE0D80F78E
:010CA400222D
:0706C300E9F5F0A4FFAEF021
:0406CA00AB07AA06CA
:1006CE007C037DE8120390900058EFF07C007D646F
:1006DE00AF03AE021203907C007D0A120390A3EDCD
:1006EE00F07C007D0AAF03AE021203907C007D0AFF
:1006FE00120390A3EDF0AE02AF037C007D0A12034D
:10070E0090AC05C2A0900058120C84D2A0C2A19049
:10071E000059120C84D2A1C2A290005A120C84D29B
:0B072E00A2C2A3AF04EF120C88D2A3FC
:01073900229D
:1007AE007590F0AF9075900FAE90EF24906024246A
:1007BE00C0601824E0600C24F07020900066740174
:1007CE00F0801B9000667402F08013900066740334
:1007DE00F0800B9000667404F080037F0022AF0659
:1007EE00EE24F9602124FC601524FE600914701EAD
:1007FE00900066E0FF22900066E02404FF22900045
:10080E0066E02408FF22900066E0240CFF227F00A1
:01081E0022B7
:100DBB00E4F91207AE900067EFF0600A1206C390D9
:0B0DCB000067E0F980EC1206C380E72F
:0B0E8200C0F9A4B0999282F88090FFA4
:0408B70041004100BB
:070D820093F5807F057E0060
:100D8900EF1FAA0670011E4A600BE4FDEDC39472C1
:050D990050EE0D80F793
:010D9E002232
:040A3F00AB07AA0651
:100A43007C007D0A120390900068EFF0AE02AF03C2
:100A53007C007D0A120390AC05C2A0E0900E8212C6
:100A63000D82D2A0C2A1AF04EF120D82D2A1D2A2F5
:020A7300D2A30C
:010A7500225E
:10098D007580FF75A0FFE490003EF0A3F09000424B
:10099D00F090004074FEF0758901758C4CE4F58A79
:1009AD00D2A9F5C875CDF875CCCCD2ADD2AFD2CA1F
:0E09BD00D28C900041E0FF7E00120A3F80F4D1
:03000B00020A06E0
:100A0600C0E0C083C082C0D0758C4C758A0090004F
:100A16003EE004F0E0B41418E4F0A3E004F0E0B41F
:100A26003C0EE4F0900041E004F0E0B43C02E4F057
:090A3600D0D0D082D083D0E03290
:03002B0002073A8F
:10073A00C0E0C0F0C083C082C0D075D000C000C085
:10074A0007C2CAC2CF75CDF875CCCC900042E0C3BF
:10075A009402400DE4F090004074F7F075A0FF8019
:10076A003290003FE0FF75F00A8485F008EF75F0DB
:10077A000A84F509900042E0FF04F074082FF8E6B5
:10078A00900E8293F580900040E0FFF5A0EFC3132E
:10079A004480F0D2CAD007D000D0D0D082D083D043
:0407AA00F0D0E03279
:0A0EC200C0F9A4B0999282F8809064
:0508BB00420064000092
:0B0CA500E0900EC293F5807F057E00FA
:100CB000EF1FAA0670011E4A600BE4FDEDC394729B
:050CC00050EE0D80F76D
:010CC500220C
:08064B00900064E0FEA3E0FF53
:04065300AB07AA0641
:100657007C037DE8120390900036EFF07C007D6408
:10066700AF03AE021203907C007D0A120390A3ED44
:10067700F07C007D0AAF03AE021203907C007D0A76
:10068700120390A3EDF0AE02AF037C007D0A1203C4
:1006970090AC05C2A0900036120CA5D2A0C2A190C2
:1006A7000037120CA5D2A1C2A2900038120CA5D215
:0B06B700A2C2A3AF04EF120CA9D2A353
:0106C2002215
:100AE300D2AFD2A8C288E4900062F0A3F090006273
:100AF300E475F0011203FB45F0600512064B80ED2F
:100B0300E4FFFE120CB0900065E004F070D8900092
:060B130064E004F080D054
:030003000205D023
:1005D000C0E0C0F0C083C082C0D075D000C000C0F1
:0B05E00002C003C004C005C006C00735
:1005EB00900034E4F0A3F0900034E475F0011203B2
:1005FB00FB45F0600512064B80ED900064E0700245
:10060B00A3E0700DC2A47FF47E01120CB0D2A480C3
:10061B0016E4FFFE120CB0900065E024FFF0900092
:07062B0064E034FFF080B928
:10063200D007D006D005D004D003D002D000D0D04D
:09064200D082D083D0F0D0E03268
:10000E00C0F9A4B0999282F880908883C6A1868E9A
:0908C00041005D0042005B0000F4
:080D6400EF93F5807F057E008E
:100D6C00EF1FAA0670011E4A600BE4FDEDC39472DE
:050D7C0050EE0D80F7B0
:010D8100224F
:04094500AD07AC0648
:10094900ECC4540FFAEC540FF9ECC4F854F0C8EDA8
:10095900C4540F48540FFBED540FFCC2A0AF02EF73
:1009690090000E120D65D2A0C2A1AF01120D64D282
:10097900A1C2A2AF03120D64D2A2C2A3AF04120D89
:0309890064D2A392
:01098C002248
:100B1900C29FD29ED29CE4F587758920758DFA759E
:100B29008BFAD28ED2ACD2AF90005DE0FEAD997C4B
:100B390000E42DFFEC3EFE12094590005BE4F0A3B2
:040B490004F080E450
:03002300020BE8E5
:100BE800C0E0C083C082309904C299801B90005B2A
:100BF800E07004A3E06401700D90005DE599F09049
:0F0C0800005BE4F0A3F0C298D082D083D0E0323A
:1008C9004E0000202031313730333939303430345B
:1008D900004F000E202064656E677869616F70694A
:0308E9006E670037
:040DF0007F057E00FD
:100DF400EF1FAA0670011E4A600BE4FDEDC3947256
:050E040050EE0D80F727
:010E090022C6
:060E8D00C2A6D2A78F905F
:050E9300000000002238
:100E3B00D201300110C2A5D2A6D2A7E59033920100
:070E4B00120E9380EDC2A717
:010E5200227D
:0B0E9800120E3BC2A5120E8DC2A72255
:0B0EA300120E3BD2A5120E8DC2A7223A
:100B4D007F0F7E00120DF4C2A6C2A7D2A57F381268
:100B5D000E98120DF07F0C120E98120DF07F0612EA
:100B6D000E981F7E00120DF47F01120E987F057EE8
:040B7D0000020DF471
:0B0A7600900031EBF0A3EAF0A3E9F0E0
:100A8100E4FC900031E0FBA3E0FAA3E0F98C82756D
:100A910083001203636014AF040C8F82758300120C
:0B0AA1000363FF120EA3120DF080D7BC
:010AAC002227
:100B81007580FF75A0FF120B4D7F647E00120DF47E
:100B91007F80120E987B017A007900120A76E4FFB9
:100BA100FE120DF47FC0120E987B017A00790E12AD
:040BB1000A7680DC64
:1004C600020B81E493A3F8E493A34003F68001F2C0
:1004D60008DFF48029E493A3F85407240CC8C33337
:1004E600C4540F4420C8834004F456800146F6DF06
:1004F600E4800B010204081020408090088FE47EFF
:10050600019360BCA3FF543F30E509541FFEE493FA
:10051600A360010ECF54C025E060A840B8E493A3C1
:10052600FAE493A3F8E493A3C8C582C8CAC583CAEC
:10053600F0A3C8C582C8CAC583CADFE9DEE780BEA4
:0108EC00000B
:10036300BB010CE58229F582E5833AF583E022504F
:1003730006E92582F8E622BBFE06E92582F8E22299
:0D038300E58229F582E5833AF583E49322B3
:10039000BC000BBE0029EF8DF084FFADF022E4CC51
:1003A000F875F008EF2FFFEE33FEEC33FCEE9DEC1A
:1003B000984005FCEE9DFE0FD5F0E9E4CEFD22ED60
:1003C000F8F5F0EE8420D21CFEADF075F008EF2FAA
:1003D000FFED33FD4007985006D5F0F222C398FD9B
:0503E0000FD5F0EA2238
:1003E500C5F0F8A3E028F0C5F0F8E58215827002A3
:0603F5001583E038F02240
:1003FB00A3F8E0C5F025F0F0E582158270021583B5
:06040B00E0C838F0E82211
:00000001FF
