:030000000200FCFF
:0C00FC00787FE4F6D8FD7581D302014343
:10000300C0F9A4B0999282F8119382C6446C28393E
:100013001139286C44C682931133226644CC8899E3
:08002300119988CC44662233D8
:10044700C102C103C104C105C101012700012A007E
:10045700012B00016C010123020125030121000189
:0D0467006D01012402012603012200C100E5
:0C04BD00900023E52893F5907F037E005B
:1004C900EF1FAA0670011E4A600BE4FDEDC394728A
:0504D90050EE0D80F75C
:0104DE0022FB
:1004DF00D2EBC2EAEF90000393F5807F057E000216
:0204EF0004C93E
:1004F100C2EBD2EAEF90000393F5807F057E000204
:0205010004C92B
:10033700E4F529E4F52890001B1204C00528E528F8
:10034700C3940840F10529E529C3943140E57F327C
:100357007E001204C9E521256D5403F521E56C25BE
:100367006D5403F56CE523256D5403F523E5252529
:060377006D5403F5252280
:1003C100E4F529E4F5281204BD0528E528C39408BD
:1003D10040F40529E529C3943140E87F327E0012BB
:1003E10004C9E52125265403F521E56C252654038E
:1003F100F56CE52325265403F523E525252654032D
:03040100F52522BC
:10040400E4F529E4F5281204BD0528E528C3940879
:1004140040F40529E529C3946240E87F327E001246
:1004240004C9E52125245403F521E56C252454034E
:10043400F56CE52325245403F523E52525245403ED
:03044400F5252279
:10047500E4F529E4F528E52890001B9344F01204DF
:10048500C30528E528C3940840EC0529E529C3944C
:040495000140E02220
:10049900E4F529E4F528E52890002393440F120494
:1004A900C30528E528C3940840EC0529E529C39428
:0404B9000140E022FC
:1001FF00E4F52930051020020D30053820023512A4
:10020F000475052980F330011020020D30012520DF
:10021F000222120499052980F3E4F528E5289000BD
:10022F000B93F5907F027E001204C90528E528C3C1
:10023F00940840E80529E529C3946E40B6E521707E
:10024F0002052BE521B40102052AE521B4020215AE
:0F025F002BE521B40302152A7FC87E000204C9D3
:10026E008E088F09AB07AA06C374FF9BFF74FF9A13
:10027E00FEE49400FDE49400FCE4FB7A01F9F8122C
:10028E00037D8FCDAE08AF09AB07AA06E4C39BFF73
:10029E00E49AFE74019400FDE49400FCE4FB7A0100
:1002AE00F9F812037D8FCBAE08AF09AB07AA06E4AF
:1002BE00C39BFFE49AFE74019400FDE49400FCE4F9
:0F02CE00FB7A01F9F812037DAF038FCC8FCA22A0
:0E050300D2AFD2AD7F887E1312026ED2CA2212
:1002DD001205031201FF2004031203372003093016
:1002ED0002063004031203C1300309300206300444
:1002FD0003120404E52AB407DAE52B70D61201FFC8
:10030D002003031203C13003093002062004031237
:10031D000337300309300206300403120404E52AC2
:0A032D0070DBE52B70D7C2B780FE2D
:03002B0002018847
:09018800C0E0C0D075D000C00732
:10019100C2CF200011E5271392E8E527A2E192A042
:1001A100A2E292A7804FAF270527EF1460181460D1
:1001B100201460281460302404703720A104D20276
:1001C1008033C202802F20A204D2058028C205807C
:1001D1002420A304D203801DC203801920A404D2C9
:1001E100048012C204800E20A504D2018007C2013E
:0701F1008003752700B20036
:0701F800D007D0D0D0E032A7
:100108000202DDE493A3F8E493A34003F68001F22E
:1001180008DFF48029E493A3F85407240CC8C333F8
:10012800C4540F4420C8834004F456800146F6DFC7
:10013800E4800B0102040810204080900447E47E0C
:10014800019360BCA3FF543F30E509541FFEE493BC
:10015800A360010ECF54C025E060A840B8E493A383
:10016800FAE493A3F8E493A3C8C582C8CAC583CAAE
:10017800F0A3C8C582C8CAC583CADFE9DEE780BE66
:010474000087
:10037D00C2D5E830E70FB2D5E4C39BFBE49AFAE4AB
:10038D0099F9E498F8EC30E717B2D51203B31200DF
:10039D006AE4C39BFBE49AFAE499F9E498F88003C4
:1003AD0012006A30D50DE4C39FFFE49EFEE49DFD6F
:0403BD00E49CFC229E
:10002E0075F008758200EF2FFFEE33FECD33CDCC89
:10003E0033CCC58233C5829BED9AEC99E58298400C
:10004E000CF582EE9BFEED9AFDEC99FC0FD5F0D6E9
:10005E00E4CEFBE4CDFAE4CCF9A88222B800C1B913
:10006E000059BA002DEC8BF084CFCECDFCE5F0CB51
:10007E00F97818EF2FFFEE33FEED33FDEC33FCEB8A
:10008E0033FB10D703994004EB99FB0FD8E5E4F945
:10009E00FA227818EF2FFFEE33FEED33FDEC33FC32
:1000AE00C933C910D7059BE99A4007EC9BFCE99A26
:1000BE00F90FD8E0E4C9FAE4CCFB2275F010EF2F6B
:1000CE00FFEE33FEED33FDCC33CCC833C810D7076B
:1000DE009BEC9AE899400AED9BFDEC9AFCE899F8A6
:0E00EE000FD5F0DAE4CDFBE4CCFAE4C8F92239
:00000001FF
