:03000000020026D5
:0C002600787FE4F6D8FD75810902006DBA
:10014300C0F9A4B0999282F880908883C6A1868E64
:0601530001080001090093
:08000300EF93F5807F057E00FC
:10000B00EF1FAA0670011E4A600BE4FDEDC394724C
:05001B0050EE0D80F71E
:0100200022BD
:0400B200AD07AC06E4
:1000B600ECC4540FFAEC540FF9ECC4F854F0C8ED44
:1000C600C4540F48540FFBED540FFCC2A0AF02EF0F
:1000D600900143120004D2A0C2A1AF01120003D2C4
:1000E600A1C2A2AF03120003D2A2C2A3AF041200A0
:0300F60003D2A38F
:0100F90022E4
:1000FA00C29FD29ED29CE4F587758920758DFA75C8
:10010A008BFAD28ED2AFD2ACAE09AD997C00E42D77
:0C011A00FFEC3EFE1200B275080180EC04
:03002300020126B1
:10012600C0E0C0D0309904C299800DE508B401063C
:0D013600859909750800C298D0D0D0E0323C
:100032000200FAE493A3F8E493A34003F68001F2EA
:1000420008DFF48029E493A3F85407240CC8C333CF
:10005200C4540F4420C8834004F456800146F6DF9E
:10006200E4800B0102040810204080900153E47EDA
:10007200019360BCA3FF543F30E509541FFEE49393
:10008200A360010ECF54C025E060A840B8E493A35A
:10009200FAE493A3F8E493A3C8C582C8CAC583CA85
:1000A200F0A3C8C582C8CAC583CADFE9DEE780BE3D
:0101590000A5
:00000001FF
